{
  "_format": "hh-sol-artifact-1",
  "contractName": "TaskContract",
  "sourceName": "contracts/TaskContract.sol",
  "abi": [
    {
      "anonymous": false,
      "inputs": [
        {
          "indexed": false,
          "internalType": "address",
          "name": "recipient",
          "type": "address"
        },
        {
          "indexed": false,
          "internalType": "uint256",
          "name": "taskId",
          "type": "uint256"
        }
      ],
      "name": "AddTask",
      "type": "event"
    },
    {
      "anonymous": false,
      "inputs": [
        {
          "indexed": false,
          "internalType": "uint256",
          "name": "taskId",
          "type": "uint256"
        },
        {
          "indexed": false,
          "internalType": "bool",
          "name": "isDeleted",
          "type": "bool"
        }
      ],
      "name": "DeleteTask",
      "type": "event"
    },
    {
      "inputs": [
        {
          "internalType": "string",
          "name": "taskText",
          "type": "string"
        },
        {
          "internalType": "bool",
          "name": "isDeleted",
          "type": "bool"
        }
      ],
      "name": "addTask",
      "outputs": [],
      "stateMutability": "nonpayable",
      "type": "function"
    },
    {
      "inputs": [
        {
          "internalType": "uint256",
          "name": "taskId",
          "type": "uint256"
        },
        {
          "internalType": "bool",
          "name": "isDeleted",
          "type": "bool"
        }
      ],
      "name": "deleteTask",
      "outputs": [],
      "stateMutability": "nonpayable",
      "type": "function"
    },
    {
      "inputs": [],
      "name": "getMyTasks",
      "outputs": [
        {
          "components": [
            {
              "internalType": "uint256",
              "name": "id",
              "type": "uint256"
            },
            {
              "internalType": "string",
              "name": "taskText",
              "type": "string"
            },
            {
              "internalType": "bool",
              "name": "isDeleted",
              "type": "bool"
            }
          ],
          "internalType": "struct TaskContract.Task[]",
          "name": "",
          "type": "tuple[]"
        }
      ],
      "stateMutability": "view",
      "type": "function"
    }
  ],
  "bytecode": "0x608060405234801561001057600080fd5b50610ae8806100206000396000f3fe608060405234801561001057600080fd5b50600436106100415760003560e01c806320df4581146100465780636e13f81814610062578063aaba290714610080575b600080fd5b610060600480360381019061005b91906106ac565b61009c565b005b61006a6101c6565b60405161007791906108c2565b60405180910390f35b61009a60048036038101906100959190610700565b610493565b005b60008080549050905060006040518060600160405280838152602001858152602001841515815250908060018154018082558091505060019003906000526020600020906003020160009091909190915060008201518160000155602082015181600101908051906020019061011392919061056e565b5060408201518160020160006101000a81548160ff0219169083151502179055505050336001600083815260200190815260200160002060006101000a81548173ffffffffffffffffffffffffffffffffffffffff021916908373ffffffffffffffffffffffffffffffffffffffff1602179055507f1f54e1ba1832d428fbd7e7792beaf62b1fc5a382c207ffd614209c1413e94fda33826040516101b9929190610899565b60405180910390a1505050565b60608060008054905067ffffffffffffffff811180156101e557600080fd5b5060405190808252806020026020018201604052801561021f57816020015b61020c6105ee565b8152602001906001900390816102045790505b5090506000805b6000805490508110156103ef573373ffffffffffffffffffffffffffffffffffffffff166001600083815260200190815260200160002060009054906101000a900473ffffffffffffffffffffffffffffffffffffffff1673ffffffffffffffffffffffffffffffffffffffff161480156102d0575060001515600082815481106102ad57fe5b906000526020600020906003020160020160009054906101000a900460ff161515145b156103e257600081815481106102e257fe5b906000526020600020906003020160405180606001604052908160008201548152602001600182018054600181600116156101000203166002900480601f01602080910402602001604051908101604052809291908181526020018280546001816001161561010002031660029004801561039e5780601f106103735761010080835404028352916020019161039e565b820191906000526020600020905b81548152906001019060200180831161038157829003601f168201915b505050505081526020016002820160009054906101000a900460ff1615151515815250508383815181106103ce57fe5b602002602001018190525081806001019250505b8080600101915050610226565b5060608167ffffffffffffffff8111801561040957600080fd5b5060405190808252806020026020018201604052801561044357816020015b6104306105ee565b8152602001906001900390816104285790505b50905060005b828110156104895783818151811061045d57fe5b602002602001015182828151811061047157fe5b60200260200101819052508080600101915050610449565b5080935050505090565b3373ffffffffffffffffffffffffffffffffffffffff166001600084815260200190815260200160002060009054906101000a900473ffffffffffffffffffffffffffffffffffffffff1673ffffffffffffffffffffffffffffffffffffffff16141561056a57806000838154811061050857fe5b906000526020600020906003020160020160006101000a81548160ff0219169083151502179055507ff88a35c3d2016c409a46570b994a17b408dbc83c14a03f521512d50b85386d0682826040516105619291906108e4565b60405180910390a15b5050565b828054600181600116156101000203166002900490600052602060002090601f016020900481019282601f106105af57805160ff19168380011785556105dd565b828001600101855582156105dd579182015b828111156105dc5782518255916020019190600101906105c1565b5b5090506105ea9190610611565b5090565b604051806060016040528060008152602001606081526020016000151581525090565b5b8082111561062a576000816000905550600101610612565b5090565b60008135905061063d81610a84565b92915050565b600082601f83011261065457600080fd5b81356106676106628261093e565b61090d565b9150808252602083016020830185838301111561068357600080fd5b61068e838284610a2f565b50505092915050565b6000813590506106a681610a9b565b92915050565b600080604083850312156106bf57600080fd5b600083013567ffffffffffffffff8111156106d957600080fd5b6106e585828601610643565b92505060206106f68582860161062e565b9150509250929050565b6000806040838503121561071357600080fd5b600061072185828601610697565b92505060206107328582860161062e565b9150509250929050565b6000610748838361082b565b905092915050565b610759816109f9565b82525050565b600061076a8261097e565b61077481856109a1565b9350836020820285016107868561096e565b8060005b858110156107c257848403895281516107a3858261073c565b94506107ae83610994565b925060208a0199505060018101905061078a565b50829750879550505050505092915050565b6107dd816109c3565b82525050565b6107ec816109c3565b82525050565b60006107fd82610989565b61080781856109b2565b9350610817818560208601610a3e565b61082081610a73565b840191505092915050565b6000606083016000830151610843600086018261087b565b506020830151848203602086015261085b82826107f2565b915050604083015161087060408601826107d4565b508091505092915050565b610884816109ef565b82525050565b610893816109ef565b82525050565b60006040820190506108ae6000830185610750565b6108bb602083018461088a565b9392505050565b600060208201905081810360008301526108dc818461075f565b905092915050565b60006040820190506108f9600083018561088a565b61090660208301846107e3565b9392505050565b6000604051905081810181811067ffffffffffffffff8211171561093457610933610a71565b5b8060405250919050565b600067ffffffffffffffff82111561095957610958610a71565b5b601f19601f8301169050602081019050919050565b6000819050602082019050919050565b600081519050919050565b600081519050919050565b6000602082019050919050565b600082825260208201905092915050565b600082825260208201905092915050565b60008115159050919050565b600073ffffffffffffffffffffffffffffffffffffffff82169050919050565b6000819050919050565b6000610a0482610a0b565b9050919050565b6000610a1682610a1d565b9050919050565b6000610a28826109cf565b9050919050565b82818337600083830152505050565b60005b83811015610a5c578082015181840152602081019050610a41565b83811115610a6b576000848401525b50505050565bfe5b6000601f19601f8301169050919050565b610a8d816109c3565b8114610a9857600080fd5b50565b610aa4816109ef565b8114610aaf57600080fd5b5056fea2646970667358221220701bd16e031c388cf958c36561d509dc1ca144cb6b178be34c0804559f0601f764736f6c63430007030033",
  "linkReferences": {},
  "deployedLinkReferences": {}
}